{
  "_format": "hh-sol-artifact-1",
  "contractName": "PerfectVotingSystem",
  "sourceName": "contracts/voting.sol",
  "abi": [
    {
      "inputs": [],
      "stateMutability": "nonpayable",
      "type": "constructor"
    },
    {
      "anonymous": false,
      "inputs": [
        {
          "indexed": true,
          "internalType": "uint256",
          "name": "sessionId",
          "type": "uint256"
        }
      ],
      "name": "ResultsReleased",
      "type": "event"
    },
    {
      "anonymous": false,
      "inputs": [
        {
          "indexed": true,
          "internalType": "uint256",
          "name": "sessionId",
          "type": "uint256"
        },
        {
          "indexed": false,
          "internalType": "string",
          "name": "name",
          "type": "string"
        },
        {
          "indexed": false,
          "internalType": "uint256",
          "name": "startTime",
          "type": "uint256"
        },
        {
          "indexed": false,
          "internalType": "uint256",
          "name": "endTime",
          "type": "uint256"
        }
      ],
      "name": "SessionCreated",
      "type": "event"
    },
    {
      "anonymous": false,
      "inputs": [
        {
          "indexed": true,
          "internalType": "uint256",
          "name": "sessionId",
          "type": "uint256"
        },
        {
          "indexed": false,
          "internalType": "address",
          "name": "voter",
          "type": "address"
        },
        {
          "indexed": false,
          "internalType": "string",
          "name": "option",
          "type": "string"
        }
      ],
      "name": "Voted",
      "type": "event"
    },
    {
      "inputs": [],
      "name": "admin",
      "outputs": [
        {
          "internalType": "address",
          "name": "",
          "type": "address"
        }
      ],
      "stateMutability": "view",
      "type": "function"
    },
    {
      "inputs": [
        {
          "internalType": "string",
          "name": "_name",
          "type": "string"
        },
        {
          "internalType": "string[]",
          "name": "_options",
          "type": "string[]"
        },
        {
          "internalType": "uint256",
          "name": "_duration",
          "type": "uint256"
        }
      ],
      "name": "createVotingSession",
      "outputs": [],
      "stateMutability": "nonpayable",
      "type": "function"
    },
    {
      "inputs": [
        {
          "internalType": "uint256",
          "name": "_sessionId",
          "type": "uint256"
        }
      ],
      "name": "getResults",
      "outputs": [
        {
          "internalType": "string[]",
          "name": "options",
          "type": "string[]"
        },
        {
          "internalType": "uint256[]",
          "name": "counts",
          "type": "uint256[]"
        }
      ],
      "stateMutability": "view",
      "type": "function"
    },
    {
      "inputs": [],
      "name": "getSessionCount",
      "outputs": [
        {
          "internalType": "uint256",
          "name": "",
          "type": "uint256"
        }
      ],
      "stateMutability": "view",
      "type": "function"
    },
    {
      "inputs": [
        {
          "internalType": "uint256",
          "name": "_sessionId",
          "type": "uint256"
        }
      ],
      "name": "isSessionActive",
      "outputs": [
        {
          "internalType": "bool",
          "name": "",
          "type": "bool"
        }
      ],
      "stateMutability": "view",
      "type": "function"
    },
    {
      "inputs": [
        {
          "internalType": "uint256",
          "name": "_sessionId",
          "type": "uint256"
        }
      ],
      "name": "releaseResults",
      "outputs": [],
      "stateMutability": "nonpayable",
      "type": "function"
    },
    {
      "inputs": [
        {
          "internalType": "uint256",
          "name": "_sessionId",
          "type": "uint256"
        },
        {
          "internalType": "string",
          "name": "_option",
          "type": "string"
        }
      ],
      "name": "vote",
      "outputs": [],
      "stateMutability": "nonpayable",
      "type": "function"
    }
  ],
  "bytecode": "0x608060405234801561001057600080fd5b50336000806101000a81548173ffffffffffffffffffffffffffffffffffffffff021916908373ffffffffffffffffffffffffffffffffffffffff160217905550611cb9806100606000396000f3fe608060405234801561001057600080fd5b506004361061007d5760003560e01c80633e87d3ba1161005b5780633e87d3ba146100d65780636e6734bf1461010657806381a60c0d14610124578063f851a440146101555761007d565b806324108475146100825780633bafd9a01461009e5780633e5c08b2146100ba575b600080fd5b61009c60048036038101906100979190611078565b610173565b005b6100b860048036038101906100b3919061104f565b61045f565b005b6100d460048036038101906100cf9190610fd0565b610666565b005b6100f060048036038101906100eb919061104f565b6109e2565b6040516100fd91906116ff565b60405180910390f35b61010e610a97565b60405161011b91906118d8565b60405180910390f35b61013e6004803603810190610139919061104f565b610aa4565b60405161014c9291906116c8565b60405180910390f35b61015d610e05565b60405161016a919061167d565b60405180910390f35b60018054905082106101ba576040517f08c379a00000000000000000000000000000000000000000000000000000000081526004016101b190611878565b60405180910390fd5b6000600183815481106101f6577f4e487b7100000000000000000000000000000000000000000000000000000000600052603260045260246000fd5b90600052602060002090600802019050806002015442101561024d576040517f08c379a0000000000000000000000000000000000000000000000000000000008152600401610244906117b8565b60405180910390fd5b8060030154421115610294576040517f08c379a000000000000000000000000000000000000000000000000000000000815260040161028b90611818565b60405180910390fd5b80600701826040516102a6919061164f565b908152602001604051809103902060009054906101000a900460ff16610301576040517f08c379a00000000000000000000000000000000000000000000000000000000081526004016102f890611798565b60405180910390fd5b8060060160003373ffffffffffffffffffffffffffffffffffffffff1673ffffffffffffffffffffffffffffffffffffffff16815260200190815260200160002060009054906101000a900460ff1615610390576040517f08c379a0000000000000000000000000000000000000000000000000000000008152600401610387906117d8565b60405180910390fd5b80600501826040516103a2919061164f565b908152602001604051809103902060008154809291906103c190611b85565b919050555060018160060160003373ffffffffffffffffffffffffffffffffffffffff1673ffffffffffffffffffffffffffffffffffffffff16815260200190815260200160002060006101000a81548160ff021916908315150217905550827f909b43dcc56d91024768bbc5c8d56441234580b2fd6176844960cbc7218cc0b53384604051610452929190611698565b60405180910390a2505050565b60008054906101000a900473ffffffffffffffffffffffffffffffffffffffff1673ffffffffffffffffffffffffffffffffffffffff163373ffffffffffffffffffffffffffffffffffffffff16146104ed576040517f08c379a00000000000000000000000000000000000000000000000000000000081526004016104e490611838565b60405180910390fd5b6001805490508110610534576040517f08c379a000000000000000000000000000000000000000000000000000000000815260040161052b90611878565b60405180910390fd5b600060018281548110610570577f4e487b7100000000000000000000000000000000000000000000000000000000600052603260045260246000fd5b90600052602060002090600802019050806003015442116105c6576040517f08c379a00000000000000000000000000000000000000000000000000000000081526004016105bd906117f8565b60405180910390fd5b8060040160009054906101000a900460ff1615610618576040517f08c379a000000000000000000000000000000000000000000000000000000000815260040161060f90611898565b60405180910390fd5b60018160040160006101000a81548160ff021916908315150217905550817f610cc35e8bc32442361a4a35f56e262bdc568a35f1a955a50bd61b05714ce82d60405160405180910390a25050565b60008054906101000a900473ffffffffffffffffffffffffffffffffffffffff1673ffffffffffffffffffffffffffffffffffffffff163373ffffffffffffffffffffffffffffffffffffffff16146106f4576040517f08c379a00000000000000000000000000000000000000000000000000000000081526004016106eb90611838565b60405180910390fd5b6000825111610738576040517f08c379a000000000000000000000000000000000000000000000000000000000815260040161072f90611858565b60405180910390fd5b6000811161077b576040517f08c379a0000000000000000000000000000000000000000000000000000000008152600401610772906118b8565b60405180910390fd5b60018081600181540180825580915050039060005260206000209050506000600180805490506107ab9190611a95565b90506000600182815481106107e9577f4e487b7100000000000000000000000000000000000000000000000000000000600052603260045260246000fd5b9060005260206000209060080201905084816000019080519060200190610811929190610e29565b5042816002018190555082426108279190611a3f565b816003018190555060008160040160006101000a81548160ff02191690831515021790555060005b8451811015610996576000858281518110610893577f4e487b7100000000000000000000000000000000000000000000000000000000600052603260045260246000fd5b6020026020010151905082600701816040516108af919061164f565b908152602001604051809103902060009054906101000a900460ff161561090b576040517f08c379a000000000000000000000000000000000000000000000000000000000815260040161090290611758565b60405180910390fd5b8260010181908060018154018082558091505060019003906000526020600020016000909190919091509080519060200190610948929190610e29565b506001836007018260405161095d919061164f565b908152602001604051809103902060006101000a81548160ff02191690831515021790555050808061098e90611b85565b91505061084f565b50817f4904011aa43162d2343adeb37498885f778d0af67c7ccfc7810d7068192b2a1b86836002015484600301546040516109d39392919061171a565b60405180910390a25050505050565b60006001805490508210610a2b576040517f08c379a0000000000000000000000000000000000000000000000000000000008152600401610a2290611878565b60405180910390fd5b600060018381548110610a67577f4e487b7100000000000000000000000000000000000000000000000000000000600052603260045260246000fd5b9060005260206000209060080201905080600201544210158015610a8f575080600301544211155b915050919050565b6000600180549050905090565b6060806001805490508310610aee576040517f08c379a0000000000000000000000000000000000000000000000000000000008152600401610ae590611878565b60405180910390fd5b600060018481548110610b2a577f4e487b7100000000000000000000000000000000000000000000000000000000600052603260045260246000fd5b9060005260206000209060080201905060008054906101000a900473ffffffffffffffffffffffffffffffffffffffff1673ffffffffffffffffffffffffffffffffffffffff163373ffffffffffffffffffffffffffffffffffffffff161480610ba257508060040160009054906101000a900460ff165b610be1576040517f08c379a0000000000000000000000000000000000000000000000000000000008152600401610bd890611778565b60405180910390fd5b60008160010180549050905081600101805480602002602001604051908101604052809291908181526020016000905b82821015610cbd578382906000526020600020018054610c3090611b53565b80601f0160208091040260200160405190810160405280929190818152602001828054610c5c90611b53565b8015610ca95780601f10610c7e57610100808354040283529160200191610ca9565b820191906000526020600020905b815481529060010190602001808311610c8c57829003601f168201915b505050505081526020019060010190610c11565b5050505093508067ffffffffffffffff811115610d03577f4e487b7100000000000000000000000000000000000000000000000000000000600052604160045260246000fd5b604051908082528060200260200182016040528015610d315781602001602082028036833780820191505090505b50925060005b81811015610dfd5782600501836001018281548110610d7f577f4e487b7100000000000000000000000000000000000000000000000000000000600052603260045260246000fd5b90600052602060002001604051610d969190611666565b908152602001604051809103902054848281518110610dde577f4e487b7100000000000000000000000000000000000000000000000000000000600052603260045260246000fd5b6020026020010181815250508080610df590611b85565b915050610d37565b505050915091565b60008054906101000a900473ffffffffffffffffffffffffffffffffffffffff1681565b828054610e3590611b53565b90600052602060002090601f016020900481019282610e575760008555610e9e565b82601f10610e7057805160ff1916838001178555610e9e565b82800160010185558215610e9e579182015b82811115610e9d578251825591602001919060010190610e82565b5b509050610eab9190610eaf565b5090565b5b80821115610ec8576000816000905550600101610eb0565b5090565b6000610edf610eda84611924565b6118f3565b9050808382526020820190508260005b85811015610f1f5781358501610f058882610f91565b845260208401935060208301925050600181019050610eef565b5050509392505050565b6000610f3c610f3784611950565b6118f3565b905082815260208101848484011115610f5457600080fd5b610f5f848285611b11565b509392505050565b600082601f830112610f7857600080fd5b8135610f88848260208601610ecc565b91505092915050565b600082601f830112610fa257600080fd5b8135610fb2848260208601610f29565b91505092915050565b600081359050610fca81611c6c565b92915050565b600080600060608486031215610fe557600080fd5b600084013567ffffffffffffffff811115610fff57600080fd5b61100b86828701610f91565b935050602084013567ffffffffffffffff81111561102857600080fd5b61103486828701610f67565b925050604061104586828701610fbb565b9150509250925092565b60006020828403121561106157600080fd5b600061106f84828501610fbb565b91505092915050565b6000806040838503121561108b57600080fd5b600061109985828601610fbb565b925050602083013567ffffffffffffffff8111156110b657600080fd5b6110c285828601610f91565b9150509250929050565b60006110d883836111e9565b905092915050565b60006110ec8383611631565b60208301905092915050565b61110181611ac9565b82525050565b6000611112826119b5565b61111c81856119f0565b93508360208202850161112e85611980565b8060005b8581101561116a578484038952815161114b85826110cc565b9450611156836119d6565b925060208a01995050600181019050611132565b50829750879550505050505092915050565b6000611187826119c0565b6111918185611a01565b935061119c83611990565b8060005b838110156111cd5781516111b488826110e0565b97506111bf836119e3565b9250506001810190506111a0565b5085935050505092915050565b6111e381611adb565b82525050565b60006111f4826119cb565b6111fe8185611a12565b935061120e818560208601611b20565b61121781611c5b565b840191505092915050565b600061122d826119cb565b6112378185611a23565b9350611247818560208601611b20565b61125081611c5b565b840191505092915050565b6000611266826119cb565b6112708185611a34565b9350611280818560208601611b20565b80840191505092915050565b6000815461129981611b53565b6112a38186611a34565b945060018216600081146112be57600181146112cf57611302565b60ff19831686528186019350611302565b6112d8856119a0565b60005b838110156112fa578154818901526001820191506020810190506112db565b838801955050505b50505092915050565b6000611318601983611a23565b91507f4475706c6963617465206f7074696f6e206465746563746564000000000000006000830152602082019050919050565b6000611358601883611a23565b91507f526573756c7473206e6f742072656c65617365642079657400000000000000006000830152602082019050919050565b6000611398600e83611a23565b91507f496e76616c6964206f7074696f6e0000000000000000000000000000000000006000830152602082019050919050565b60006113d8601a83611a23565b91507f566f74696e6720686173206e6f742073746172746564207965740000000000006000830152602082019050919050565b6000611418600d83611a23565b91507f416c726561647920766f746564000000000000000000000000000000000000006000830152602082019050919050565b6000611458601783611a23565b91507f566f74696e6720706572696f64206e6f7420656e6465640000000000000000006000830152602082019050919050565b6000611498601083611a23565b91507f566f74696e672068617320656e646564000000000000000000000000000000006000830152602082019050919050565b60006114d8602283611a23565b91507f4f6e6c792061646d696e2063616e20706572666f726d2074686973206163746960008301527f6f6e0000000000000000000000000000000000000000000000000000000000006020830152604082019050919050565b600061153e601c83611a23565b91507f4174206c65617374206f6e65206f7074696f6e207265717569726564000000006000830152602082019050919050565b600061157e601283611a23565b91507f496e76616c69642073657373696f6e20494400000000000000000000000000006000830152602082019050919050565b60006115be601883611a23565b91507f526573756c747320616c72656164792072656c656173656400000000000000006000830152602082019050919050565b60006115fe601983611a23565b91507f4475726174696f6e206d75737420626520706f736974697665000000000000006000830152602082019050919050565b61163a81611b07565b82525050565b61164981611b07565b82525050565b600061165b828461125b565b915081905092915050565b6000611672828461128c565b915081905092915050565b600060208201905061169260008301846110f8565b92915050565b60006040820190506116ad60008301856110f8565b81810360208301526116bf8184611222565b90509392505050565b600060408201905081810360008301526116e28185611107565b905081810360208301526116f6818461117c565b90509392505050565b600060208201905061171460008301846111da565b92915050565b600060608201905081810360008301526117348186611222565b90506117436020830185611640565b6117506040830184611640565b949350505050565b600060208201905081810360008301526117718161130b565b9050919050565b600060208201905081810360008301526117918161134b565b9050919050565b600060208201905081810360008301526117b18161138b565b9050919050565b600060208201905081810360008301526117d1816113cb565b9050919050565b600060208201905081810360008301526117f18161140b565b9050919050565b600060208201905081810360008301526118118161144b565b9050919050565b600060208201905081810360008301526118318161148b565b9050919050565b60006020820190508181036000830152611851816114cb565b9050919050565b6000602082019050818103600083015261187181611531565b9050919050565b6000602082019050818103600083015261189181611571565b9050919050565b600060208201905081810360008301526118b1816115b1565b9050919050565b600060208201905081810360008301526118d1816115f1565b9050919050565b60006020820190506118ed6000830184611640565b92915050565b6000604051905081810181811067ffffffffffffffff8211171561191a57611919611c2c565b5b8060405250919050565b600067ffffffffffffffff82111561193f5761193e611c2c565b5b602082029050602081019050919050565b600067ffffffffffffffff82111561196b5761196a611c2c565b5b601f19601f8301169050602081019050919050565b6000819050602082019050919050565b6000819050602082019050919050565b60008190508160005260206000209050919050565b600081519050919050565b600081519050919050565b600081519050919050565b6000602082019050919050565b6000602082019050919050565b600082825260208201905092915050565b600082825260208201905092915050565b600082825260208201905092915050565b600082825260208201905092915050565b600081905092915050565b6000611a4a82611b07565b9150611a5583611b07565b9250827fffffffffffffffffffffffffffffffffffffffffffffffffffffffffffffffff03821115611a8a57611a89611bce565b5b828201905092915050565b6000611aa082611b07565b9150611aab83611b07565b925082821015611abe57611abd611bce565b5b828203905092915050565b6000611ad482611ae7565b9050919050565b60008115159050919050565b600073ffffffffffffffffffffffffffffffffffffffff82169050919050565b6000819050919050565b82818337600083830152505050565b60005b83811015611b3e578082015181840152602081019050611b23565b83811115611b4d576000848401525b50505050565b60006002820490506001821680611b6b57607f821691505b60208210811415611b7f57611b7e611bfd565b5b50919050565b6000611b9082611b07565b91507fffffffffffffffffffffffffffffffffffffffffffffffffffffffffffffffff821415611bc357611bc2611bce565b5b600182019050919050565b7f4e487b7100000000000000000000000000000000000000000000000000000000600052601160045260246000fd5b7f4e487b7100000000000000000000000000000000000000000000000000000000600052602260045260246000fd5b7f4e487b7100000000000000000000000000000000000000000000000000000000600052604160045260246000fd5b6000601f19601f8301169050919050565b611c7581611b07565b8114611c8057600080fd5b5056fea26469706673582212205310a4fad09db348b0d78d6e0765001e9473cae6d862a2810c6a27fd1ad5a64f64736f6c63430008000033",
  "linkReferences": {},
  "deployedLinkReferences": {}
}